{
  "contractName": "VestingContract",
  "abi": [
    {
      "inputs": [
        {
          "internalType": "contract IERC20",
          "name": "_token",
          "type": "address"
        },
        {
          "internalType": "uint256",
          "name": "_totalAllocatedTokens",
          "type": "uint256"
        }
      ],
      "stateMutability": "nonpayable",
      "type": "constructor"
    },
    {
      "inputs": [
        {
          "internalType": "address",
          "name": "owner",
          "type": "address"
        }
      ],
      "name": "OwnableInvalidOwner",
      "type": "error"
    },
    {
      "inputs": [
        {
          "internalType": "address",
          "name": "account",
          "type": "address"
        }
      ],
      "name": "OwnableUnauthorizedAccount",
      "type": "error"
    },
    {
      "anonymous": false,
      "inputs": [
        {
          "indexed": true,
          "internalType": "address",
          "name": "beneficiary",
          "type": "address"
        },
        {
          "indexed": false,
          "internalType": "enum VestingContract.Role",
          "name": "role",
          "type": "uint8"
        },
        {
          "indexed": false,
          "internalType": "uint256",
          "name": "amount",
          "type": "uint256"
        }
      ],
      "name": "BeneficiaryAdded",
      "type": "event"
    },
    {
      "anonymous": false,
      "inputs": [
        {
          "indexed": true,
          "internalType": "address",
          "name": "previousOwner",
          "type": "address"
        },
        {
          "indexed": true,
          "internalType": "address",
          "name": "newOwner",
          "type": "address"
        }
      ],
      "name": "OwnershipTransferred",
      "type": "event"
    },
    {
      "anonymous": false,
      "inputs": [
        {
          "indexed": true,
          "internalType": "address",
          "name": "beneficiary",
          "type": "address"
        },
        {
          "indexed": false,
          "internalType": "uint256",
          "name": "amount",
          "type": "uint256"
        }
      ],
      "name": "TokensClaimed",
      "type": "event"
    },
    {
      "anonymous": false,
      "inputs": [
        {
          "indexed": true,
          "internalType": "address",
          "name": "beneficiary",
          "type": "address"
        },
        {
          "indexed": false,
          "internalType": "uint256",
          "name": "start",
          "type": "uint256"
        }
      ],
      "name": "VestingStarted",
      "type": "event"
    },
    {
      "inputs": [
        {
          "internalType": "address",
          "name": "",
          "type": "address"
        }
      ],
      "name": "beneficiaries",
      "outputs": [
        {
          "internalType": "uint256",
          "name": "cliff",
          "type": "uint256"
        },
        {
          "internalType": "uint256",
          "name": "duration",
          "type": "uint256"
        },
        {
          "internalType": "uint256",
          "name": "amount",
          "type": "uint256"
        },
        {
          "internalType": "uint256",
          "name": "start",
          "type": "uint256"
        },
        {
          "internalType": "uint256",
          "name": "claimed",
          "type": "uint256"
        }
      ],
      "stateMutability": "view",
      "type": "function"
    },
    {
      "inputs": [],
      "name": "owner",
      "outputs": [
        {
          "internalType": "address",
          "name": "",
          "type": "address"
        }
      ],
      "stateMutability": "view",
      "type": "function"
    },
    {
      "inputs": [],
      "name": "renounceOwnership",
      "outputs": [],
      "stateMutability": "nonpayable",
      "type": "function"
    },
    {
      "inputs": [
        {
          "internalType": "address",
          "name": "",
          "type": "address"
        }
      ],
      "name": "roles",
      "outputs": [
        {
          "internalType": "enum VestingContract.Role",
          "name": "",
          "type": "uint8"
        }
      ],
      "stateMutability": "view",
      "type": "function"
    },
    {
      "inputs": [],
      "name": "token",
      "outputs": [
        {
          "internalType": "contract IERC20",
          "name": "",
          "type": "address"
        }
      ],
      "stateMutability": "view",
      "type": "function"
    },
    {
      "inputs": [],
      "name": "totalAllocatedTokens",
      "outputs": [
        {
          "internalType": "uint256",
          "name": "",
          "type": "uint256"
        }
      ],
      "stateMutability": "view",
      "type": "function"
    },
    {
      "inputs": [
        {
          "internalType": "address",
          "name": "newOwner",
          "type": "address"
        }
      ],
      "name": "transferOwnership",
      "outputs": [],
      "stateMutability": "nonpayable",
      "type": "function"
    },
    {
      "inputs": [
        {
          "internalType": "address",
          "name": "beneficiary",
          "type": "address"
        },
        {
          "internalType": "enum VestingContract.Role",
          "name": "role",
          "type": "uint8"
        },
        {
          "internalType": "uint256",
          "name": "start",
          "type": "uint256"
        }
      ],
      "name": "addBeneficiary",
      "outputs": [],
      "stateMutability": "nonpayable",
      "type": "function"
    },
    {
      "inputs": [],
      "name": "claimTokens",
      "outputs": [],
      "stateMutability": "nonpayable",
      "type": "function"
    }
  ],
  "bytecode": "0x608060405234801562000010575f80fd5b50604051620013c4380380620013c483398181016040528101906200003691906200027c565b335f73ffffffffffffffffffffffffffffffffffffffff168173ffffffffffffffffffffffffffffffffffffffff1603620000aa575f6040517f1e4fbdf7000000000000000000000000000000000000000000000000000000008152600401620000a19190620002d2565b60405180910390fd5b620000bb816200010b60201b60201c565b508160015f6101000a81548173ffffffffffffffffffffffffffffffffffffffff021916908373ffffffffffffffffffffffffffffffffffffffff160217905550806002819055505050620002ed565b5f805f9054906101000a900473ffffffffffffffffffffffffffffffffffffffff169050815f806101000a81548173ffffffffffffffffffffffffffffffffffffffff021916908373ffffffffffffffffffffffffffffffffffffffff1602179055508173ffffffffffffffffffffffffffffffffffffffff168173ffffffffffffffffffffffffffffffffffffffff167f8be0079c531659141344cd1fd0a4f28419497f9722a3daafe3b4186f6b6457e060405160405180910390a35050565b5f80fd5b5f73ffffffffffffffffffffffffffffffffffffffff82169050919050565b5f620001fb82620001d0565b9050919050565b5f6200020e82620001ef565b9050919050565b620002208162000202565b81146200022b575f80fd5b50565b5f815190506200023e8162000215565b92915050565b5f819050919050565b620002588162000244565b811462000263575f80fd5b50565b5f8151905062000276816200024d565b92915050565b5f8060408385031215620002955762000294620001cc565b5b5f620002a4858286016200022e565b9250506020620002b78582860162000266565b9150509250929050565b620002cc81620001ef565b82525050565b5f602082019050620002e75f830184620002c1565b92915050565b6110c980620002fb5f395ff3fe608060405234801561000f575f80fd5b5060043610610091575f3560e01c8063715018a611610064578063715018a61461010d5780638da5cb5b146101175780639937464214610135578063f2fde38b14610165578063fc0c546a1461018157610091565b806301567739146100955780630c195d99146100c957806348c54b9d146100e75780635c160f66146100f1575b5f80fd5b6100af60048036038101906100aa9190610a92565b61019f565b6040516100c0959493929190610ad5565b60405180910390f35b6100d16101d1565b6040516100de9190610b26565b60405180910390f35b6100ef6101d7565b005b61010b60048036038101906101069190610b8c565b610445565b005b610115610775565b005b61011f610788565b60405161012c9190610beb565b60405180910390f35b61014f600480360381019061014a9190610a92565b6107af565b60405161015c9190610c77565b60405180910390f35b61017f600480360381019061017a9190610a92565b6107cc565b005b610189610850565b6040516101969190610ceb565b60405180910390f35b6003602052805f5260405f205f91509050805f0154908060010154908060020154908060030154908060040154905085565b60025481565b5f60035f3373ffffffffffffffffffffffffffffffffffffffff1673ffffffffffffffffffffffffffffffffffffffff1681526020019081526020015f209050805f015442101561025d576040517f08c379a000000000000000000000000000000000000000000000000000000000815260040161025490610d5e565b60405180910390fd5b5f8160020154116102a3576040517f08c379a000000000000000000000000000000000000000000000000000000000815260040161029a90610dc6565b60405180910390fd5b5f81600401546102ee836040518060a00160405290815f8201548152602001600182015481526020016002820154815260200160038201548152602001600482015481525050610875565b6102f89190610e11565b90505f811161033c576040517f08c379a000000000000000000000000000000000000000000000000000000000815260040161033390610e8e565b60405180910390fd5b80826004015f82825461034f9190610eac565b9250508190555060015f9054906101000a900473ffffffffffffffffffffffffffffffffffffffff1673ffffffffffffffffffffffffffffffffffffffff1663a9059cbb33836040518363ffffffff1660e01b81526004016103b2929190610edf565b6020604051808303815f875af11580156103ce573d5f803e3d5ffd5b505050506040513d601f19601f820116820180604052508101906103f29190610f3b565b503373ffffffffffffffffffffffffffffffffffffffff167f896e034966eaaf1adc54acc0f257056febbd300c9e47182cf761982cf1f5e430826040516104399190610b26565b60405180910390a25050565b61044d6108e5565b5f60035f8573ffffffffffffffffffffffffffffffffffffffff1673ffffffffffffffffffffffffffffffffffffffff1681526020019081526020015f2060020154146104cf576040517f08c379a00000000000000000000000000000000000000000000000000000000081526004016104c690610fb0565b60405180910390fd5b5f805f8060028111156104e5576104e4610c04565b5b8560028111156104f8576104f7610c04565b5b03610543576064603260025461050e9190610fce565b610518919061103c565b905063018b82008461052a9190610eac565b92506303c267008461053c9190610eac565b9150610622565b6001600281111561055757610556610c04565b5b85600281111561056a57610569610c04565b5b036105b457606460196002546105809190610fce565b61058a919061103c565b9050624f1a008461059b9190610eac565b92506301e13380846105ad9190610eac565b9150610621565b6002808111156105c7576105c6610c04565b5b8560028111156105da576105d9610c04565b5b0361062057606460196002546105f09190610fce565b6105fa919061103c565b9050624f1a008461060b9190610eac565b92506301e133808461061d9190610eac565b91505b5b5b6040518060a001604052808481526020018381526020018281526020018581526020015f81525060035f8873ffffffffffffffffffffffffffffffffffffffff1673ffffffffffffffffffffffffffffffffffffffff1681526020019081526020015f205f820151815f0155602082015181600101556040820151816002015560608201518160030155608082015181600401559050508460045f8873ffffffffffffffffffffffffffffffffffffffff1673ffffffffffffffffffffffffffffffffffffffff1681526020019081526020015f205f6101000a81548160ff0219169083600281111561071857610717610c04565b5b02179055508573ffffffffffffffffffffffffffffffffffffffff167fc8f4be38ce4ee78fa6b536837e37b8af78b810208aad8ccc7b0331f46a3cda22868360405161076592919061106c565b60405180910390a2505050505050565b61077d6108e5565b6107865f61096c565b565b5f805f9054906101000a900473ffffffffffffffffffffffffffffffffffffffff16905090565b6004602052805f5260405f205f915054906101000a900460ff1681565b6107d46108e5565b5f73ffffffffffffffffffffffffffffffffffffffff168173ffffffffffffffffffffffffffffffffffffffff1603610844575f6040517f1e4fbdf700000000000000000000000000000000000000000000000000000000815260040161083b9190610beb565b60405180910390fd5b61084d8161096c565b50565b60015f9054906101000a900473ffffffffffffffffffffffffffffffffffffffff1681565b5f815f0151421015610889575f90506108e0565b816020015142106108a057816040015190506108e0565b816060015182602001516108b49190610e11565b8260600151426108c49190610e11565b83604001516108d39190610fce565b6108dd919061103c565b90505b919050565b6108ed610a2d565b73ffffffffffffffffffffffffffffffffffffffff1661090b610788565b73ffffffffffffffffffffffffffffffffffffffff161461096a5761092e610a2d565b6040517f118cdaa70000000000000000000000000000000000000000000000000000000081526004016109619190610beb565b60405180910390fd5b565b5f805f9054906101000a900473ffffffffffffffffffffffffffffffffffffffff169050815f806101000a81548173ffffffffffffffffffffffffffffffffffffffff021916908373ffffffffffffffffffffffffffffffffffffffff1602179055508173ffffffffffffffffffffffffffffffffffffffff168173ffffffffffffffffffffffffffffffffffffffff167f8be0079c531659141344cd1fd0a4f28419497f9722a3daafe3b4186f6b6457e060405160405180910390a35050565b5f33905090565b5f80fd5b5f73ffffffffffffffffffffffffffffffffffffffff82169050919050565b5f610a6182610a38565b9050919050565b610a7181610a57565b8114610a7b575f80fd5b50565b5f81359050610a8c81610a68565b92915050565b5f60208284031215610aa757610aa6610a34565b5b5f610ab484828501610a7e565b91505092915050565b5f819050919050565b610acf81610abd565b82525050565b5f60a082019050610ae85f830188610ac6565b610af56020830187610ac6565b610b026040830186610ac6565b610b0f6060830185610ac6565b610b1c6080830184610ac6565b9695505050505050565b5f602082019050610b395f830184610ac6565b92915050565b60038110610b4b575f80fd5b50565b5f81359050610b5c81610b3f565b92915050565b610b6b81610abd565b8114610b75575f80fd5b50565b5f81359050610b8681610b62565b92915050565b5f805f60608486031215610ba357610ba2610a34565b5b5f610bb086828701610a7e565b9350506020610bc186828701610b4e565b9250506040610bd286828701610b78565b9150509250925092565b610be581610a57565b82525050565b5f602082019050610bfe5f830184610bdc565b92915050565b7f4e487b71000000000000000000000000000000000000000000000000000000005f52602160045260245ffd5b60038110610c4257610c41610c04565b5b50565b5f819050610c5282610c31565b919050565b5f610c6182610c45565b9050919050565b610c7181610c57565b82525050565b5f602082019050610c8a5f830184610c68565b92915050565b5f819050919050565b5f610cb3610cae610ca984610a38565b610c90565b610a38565b9050919050565b5f610cc482610c99565b9050919050565b5f610cd582610cba565b9050919050565b610ce581610ccb565b82525050565b5f602082019050610cfe5f830184610cdc565b92915050565b5f82825260208201905092915050565b7f546f6b656e7320617265206e6f742079657420766573746564000000000000005f82015250565b5f610d48601983610d04565b9150610d5382610d14565b602082019050919050565b5f6020820190508181035f830152610d7581610d3c565b9050919050565b7f4e6f20746f6b656e7320746f20636c61696d00000000000000000000000000005f82015250565b5f610db0601283610d04565b9150610dbb82610d7c565b602082019050919050565b5f6020820190508181035f830152610ddd81610da4565b9050919050565b7f4e487b71000000000000000000000000000000000000000000000000000000005f52601160045260245ffd5b5f610e1b82610abd565b9150610e2683610abd565b9250828203905081811115610e3e57610e3d610de4565b5b92915050565b7f4e6f20746f6b656e7320617661696c61626c6520666f7220636c61696d0000005f82015250565b5f610e78601d83610d04565b9150610e8382610e44565b602082019050919050565b5f6020820190508181035f830152610ea581610e6c565b9050919050565b5f610eb682610abd565b9150610ec183610abd565b9250828201905080821115610ed957610ed8610de4565b5b92915050565b5f604082019050610ef25f830185610bdc565b610eff6020830184610ac6565b9392505050565b5f8115159050919050565b610f1a81610f06565b8114610f24575f80fd5b50565b5f81519050610f3581610f11565b92915050565b5f60208284031215610f5057610f4f610a34565b5b5f610f5d84828501610f27565b91505092915050565b7f42656e656669636961727920616c7265616479206578697374730000000000005f82015250565b5f610f9a601a83610d04565b9150610fa582610f66565b602082019050919050565b5f6020820190508181035f830152610fc781610f8e565b9050919050565b5f610fd882610abd565b9150610fe383610abd565b9250828202610ff181610abd565b9150828204841483151761100857611007610de4565b5b5092915050565b7f4e487b71000000000000000000000000000000000000000000000000000000005f52601260045260245ffd5b5f61104682610abd565b915061105183610abd565b9250826110615761106061100f565b5b828204905092915050565b5f60408201905061107f5f830185610c68565b61108c6020830184610ac6565b939250505056fea2646970667358221220fd6fd5918722064e4e182da037763f6bbf2da2a7b2d08c87b61b4f5c1fa0655064736f6c63430008150033",
  "immutableReferences": {},
  "source": "// SPDX-License-Identifier: MIT\r\npragma solidity ^0.8.0;\r\n\r\nimport \"@openzeppelin/contracts/token/ERC20/IERC20.sol\";\r\nimport \"@openzeppelin/contracts/access/Ownable.sol\";\r\n\r\ncontract VestingContract is Ownable {\r\n    IERC20 public token;\r\n    uint256 public totalAllocatedTokens;\r\n    \r\n    enum Role { User, Partner, Team }\r\n    \r\n    struct VestingSchedule {\r\n        uint256 cliff;\r\n        uint256 duration;\r\n        uint256 amount;\r\n        uint256 start;\r\n        uint256 claimed;\r\n    }\r\n\r\n    mapping(address => VestingSchedule) public beneficiaries;\r\n    mapping(address => Role) public roles;\r\n\r\n    event VestingStarted(address indexed beneficiary, uint256 start);\r\n    event BeneficiaryAdded(address indexed beneficiary, Role role, uint256 amount);\r\n    event TokensClaimed(address indexed beneficiary, uint256 amount);\r\n\r\n    constructor(IERC20 _token, uint256 _totalAllocatedTokens) Ownable(msg.sender) {\r\n        token = _token;\r\n        totalAllocatedTokens = _totalAllocatedTokens;\r\n    }\r\n\r\n    function addBeneficiary(address beneficiary, Role role, uint256 start) external onlyOwner {\r\n        require(beneficiaries[beneficiary].amount == 0, \"Beneficiary already exists\");\r\n\r\n        uint256 cliff;\r\n        uint256 duration;\r\n        uint256 amount;\r\n        \r\n        if (role == Role.User) {\r\n            amount = totalAllocatedTokens * 50 / 100;\r\n            cliff = start + 10 * 30 * 24 * 60 * 60; // 10 months in seconds\r\n            duration = start + 2 * 365 * 24 * 60 * 60; // 2 years in seconds\r\n        } else if (role == Role.Partner) {\r\n            amount = totalAllocatedTokens * 25 / 100;\r\n            cliff = start + 2 * 30 * 24 * 60 * 60; // 2 months in seconds\r\n            duration = start + 365 * 24 * 60 * 60; // 1 year in seconds\r\n        } else if (role == Role.Team) {\r\n            amount = totalAllocatedTokens * 25 / 100;\r\n            cliff = start + 2 * 30 * 24 * 60 * 60; // 2 months in seconds\r\n            duration = start + 365 * 24 * 60 * 60; // 1 year in seconds\r\n        }\r\n\r\n        beneficiaries[beneficiary] = VestingSchedule(cliff, duration, amount, start, 0);\r\n        roles[beneficiary] = role;\r\n        \r\n        emit BeneficiaryAdded(beneficiary, role, amount);\r\n    }\r\n\r\n    function claimTokens() external {\r\n        VestingSchedule storage schedule = beneficiaries[msg.sender];\r\n        require(block.timestamp >= schedule.cliff, \"Tokens are not yet vested\");\r\n        require(schedule.amount > 0, \"No tokens to claim\");\r\n\r\n        uint256 claimable = _vestedAmount(schedule) - schedule.claimed;\r\n        require(claimable > 0, \"No tokens available for claim\");\r\n\r\n        schedule.claimed += claimable;\r\n        token.transfer(msg.sender, claimable);\r\n\r\n        emit TokensClaimed(msg.sender, claimable);\r\n    }\r\n\r\n    function _vestedAmount(VestingSchedule memory schedule) internal view returns (uint256) {\r\n        if (block.timestamp < schedule.cliff) {\r\n            return 0;\r\n        } else if (block.timestamp >= schedule.duration) {\r\n            return schedule.amount;\r\n        } else {\r\n            return schedule.amount * (block.timestamp - schedule.start) / (schedule.duration - schedule.start);\r\n        }\r\n    }\r\n}\r\n",
  "sourcePath": "C:\\Users\\Manoj Vudarapu\\VestingContract\\contracts\\VestingContract.sol",
  "compiler": {
    "name": "solc",
    "version": "0.8.21+commit.d9974bed.Emscripten.clang"
  },
  "schemaVersion": "3.4.16",
  "updatedAt": "2024-07-19T13:36:54.062Z",
  "devdoc": {
    "errors": {
      "OwnableInvalidOwner(address)": [
        {
          "details": "The owner is not a valid owner account. (eg. `address(0)`)"
        }
      ],
      "OwnableUnauthorizedAccount(address)": [
        {
          "details": "The caller account is not authorized to perform an operation."
        }
      ]
    },
    "kind": "dev",
    "methods": {
      "owner()": {
        "details": "Returns the address of the current owner."
      },
      "renounceOwnership()": {
        "details": "Leaves the contract without owner. It will not be possible to call `onlyOwner` functions. Can only be called by the current owner. NOTE: Renouncing ownership will leave the contract without an owner, thereby disabling any functionality that is only available to the owner."
      },
      "transferOwnership(address)": {
        "details": "Transfers ownership of the contract to a new account (`newOwner`). Can only be called by the current owner."
      }
    },
    "version": 1
  },
  "userdoc": {
    "kind": "user",
    "methods": {},
    "version": 1
  }
}